S00B000066616E2E73726563E4
S113000045C0000062C0000060C000000C94EC0A0F
S11300105CC000005AC0000058C0000056C0000078
S113002054C000000C94140B50C000004EC00000DB
S11300304CC000004AC0000048C0000046C0000098
S11300400C94C20A42C000000C943C0B3EC0000059
S11300503CC000003AC0000038C0000036C00000B8
S113006034C0000032C0000030C000002EC00000C8
S11300702CC000002AC0000028C0000026C00000D8
S113008024C0000022C0000020C0000011241FBEB4
S1130090CFEFD0E1DEBFCDBF11E0A0E0B1E0E8EEEC
S11300A0F0E200E00BBF02C007900D92AE3DB10735
S11300B0D9F722E0AEEDB1E001C01D92A039B2073C
S11300C0E1F70E94640B0C9472109ACF40910002E5
S11300D0509101024F5F5F4F9A01369527953695EF
S11300E0279536952795A5ECB0E20E945D0D929573
S11300F082958F7089279F70892768EE73E0869FA9
S11301009001879F300D969F300D1124CA01821BE8
S1130110930B9093010280930002892B11F5809137
S1130120200290E001966CE370E00E942E0D809313
S11301302002811116C080911E0290E001966CE3AA
S113014070E00E942E0D80931E0281110AC08091DE
S1130150160290E0019668E170E00E942E0D8093F3
S113016016020895109201021092000210922002C9
S113017010921E02109216028091290290E00196BC
S11301806CE370E00E942E0D809329020895109272
S11301900102109200021092200210921E0210928C
S11301A0160280911D0290E001966CE370E00E94BB
S11301B02E0D80931D02089580910202811108C0C2
S11301C00E94380A64E088EE93E00C94440A08958F
S11301D0813041F40E94380A63E088EE93E00C9485
S11301E0440A0895823039F40E94380A61E088EEA6
S11301F093E00C94440A08950E94770A8FE99FE0E3
S11302000197F1F700C000000E94A00A8823C9F0FA
S11302100E949D0A0E94820A0B9718F40C943E0ACD
S1130220089590911E0280912902981309C090911B
S1130230200280911D02981303C00C943E0A089575
S1130240BBCF0895DAD688EE93E0E3D62FEF83ECA4
S113025099E0215080409040E1F700C000001092E6
S1130260890010928800CFC6089520E049E350E049
S11302706AE370E080E192E077D621E049E350E060
S11302806AE370E087E192E06FD622E049E350E050
S11302906AE370E08AE092E067D623E049E350E045
S11302A06AE370E088EF91E05FD622E049E350E032
S11302B06AE370E084E092E057D623E049E350E03B
S11302C06AE370E082E292E04FD60E94250A0E941F
S11302D0CC09BDD67FD60E94660A0E94C80B0E9434
S11302E0B30B0E94BC0B1092FF01109202021092F9
S11302F00102109200021092200210921E0210922B
S1130300160210921D0210922902109228021092D5
S11303101F02109221021092FE01109203020E9409
S11303203E0A88E0EBE0F1E0AEEDB1E001900D9221
S11303308A95E1F74EED51E060E080E00E94190AF1
S113034081E1E3E1F1E0AEEDB1E001900D928A9537
S1130350E1F74EED51E060E081E00E94190A72CFAE
S113036008950C94B70A0895B8C708950C94D40B53
S11303700895CF93DF9366DF1FDF0E94220ACEED3C
S1130380D1E08AE0E4E2F1E0DE0101900D928A9589
S1130390E1F7AE0160E080E00E94190A8091020258
S11303A01F928F938EE291E09F938F93DF93CF936D
S11303B00E94970DAE0160E081E00E94190A0F903F
S11303C00F900F900F900F900F90DF91CF910895A1
S11303D0CF93DF9337DF0E943E0A0E94220ACEEDBC
S11303E0D1E08AE0E4E2F1E0DE0101900D928A9529
S11303F0E1F7AE0160E080E00E94190A80910202F8
S11304001F928F938EE291E09F938F93DF93CF930C
S11304100E94970DAE0160E081E00E94190A0F90DE
S11304200F900F900F900F900F90DF91CF91089540
S113043010920102109200021092200210921E02E9
S1130440109216020895CF93DF930E94F40B882331
S113045009F422C10E94F70B0E94FA0BEC0161E33C
S113046071E00E948E0D892B31F4ECDEA5DE83E071
S11304708093FF0111C165E371E0CE010E948E0DEE
S1130480892B29F4DFDEFAD71092FF0105C16AE354
S113049071E0CE010E948E0D892BA9F4D3DE8091E8
S11304A00202813041F018F0823049F00AC081E044
S11304B08093020206C082E08093020202C010927E
S11304C002027ADEE9C062E471E0CE010E948E0D80
S11304D0892B61F5B7DE8091210290E001966CE3EF
S11304E070E00E942E0D80932102ACD780911F02F0
S11304F01F928F93809121021F928F938BE491E03E
S11305009F938F938EED91E09F938F930E94970D0D
S11305104EED51E060E080E08CD78DB79EB7089631
S11305200FB6F8949EBF0FBE8DBFB6C06FE571E0E5
S1130530CE010E948E0D892B61F584DE80911F020D
S113054090E001966CE370E00E942E0D80931F02F0
S113055079D780911F021F928F93809121021F925D
S11305608F938BE491E09F938F938EED91E09F9313
S11305708F930E94970D4EED51E060E080E059D7D3
S11305808DB79EB708960FB6F8949EBF0FBE8DBF69
S113059083C068E671E0CE010E948E0D892B61F55F
S11305A051DE8091030290E001966CE370E00E94BA
S11305B02E0D8093030246D78091FE011F928F93E4
S11305C0809103021F928F9382E791E09F938F9310
S11305D08EED91E09F938F930E94970D4EED51E025
S11305E060E080E026D78DB79EB708960FB6F894E2
S11305F09EBF0FBE8DBF50C067E871E0CE010E9460
S11306008E0D892B61F51EDE8091FE0190E001962E
S11306106CE370E00E942E0D8093FE0113D780914D
S1130620FE011F928F93809103021F928F9382E7A2
S113063091E09F938F938EED91E09F938F930E940F
S1130640970D4EED51E060E080E0F3D68DB79EB794
S113065008960FB6F8949EBF0FBE8DBF1DC061E90A
S113066071E0CE010E948E0D892BB1F4E1DEEADD4A
S1130670E9D682E1ECE9F1E0AEEDB1E001900D9252
S11306808A95E1F74EED51E060E080E0D2D64EEA83
S113069051E060E081E0CDD680911F02811104C059
S11306A090912102992381F09091200289130CC02A
S11306B090911E0280912102981306C0C3DD7CDD57
S11306C010921F02109221028091FE01811104C038
S11306D090910302992381F09091200289130CC018
S11306E090911E0280910302981306C0ABDDC6D61A
S11306F01092FE0110920302DF91CF91089510929F
S1130700290210921D020895109228020895CF9391
S1130710DF938091FF01823009F4A6C130F488236D
S113072069F0813009F489C019C4843009F493C292
S113073008F412C2853009F4A1C310C480E192E028
S113074020D4813019F57EDD37DD7CD687E0E8EBF7
S1130750F1E0AEEDB1E001900D928A95E1F74EED36
S113076051E060E080E065D681E1E3E1F1E0AEEDE7
S1130770B1E001900D928A95E1F74EED51E060E011
S113078081E057D683E08093FF01E8C387E192E0DC
S1130790F8D3813021F556DD71D654D68BE0EFEBDA
S11307A0F1E0AEEDB1E001900D928A95E1F74EEDE6
S11307B051E060E080E03DD68CE0EAECF1E0AEEDA3
S11307C0B1E001900D928A95E1F74EED51E060E0C1
S11307D081E02FD681E08093FF0191DFBFC384E0E5
S11307E092E0CFD3813019F52DDD48D62BD68AE09F
S11307F0E4E2F1E0AEEDB1E001900D928A95E1F70B
S11308004EED51E060E080E014D687E0E6EDF1E0E3
S1130810AEEDB1E001900D928A95E1F74EED51E015
S113082060E081E006D682E08093FF0197C36CDF2D
S11308308091280290E04CD591C380E192E0A1D34D
S1130840813091F5FFDC1AD6F3DDFCD5CEEDD1E095
S11308508BE0EFEBF1E0DE0101900D928A95E1F778
S1130860AE0160E080E0E5D580911D021F928F9378
S1130870809129021F928F938DE791E09F938F932C
S1130880DF93CF930E94970DAE0160E081E0D1D554
S113089083E08093FF018DB79EB708960FB6F89456
S11308A09EBF0FBE8DBF5AC387E192E06AD38130E9
S11308B019F5C8DCE3D5C6D588E0EBE0F1E0AEED90
S11308C0B1E001900D928A95E1F74EED51E060E0C0
S11308D080E0AFD581E1E3E1F1E0AEEDB1E001907C
S11308E00D928A95E1F74EED51E060E081E0A1D5EB
S11308F006DF1092FF0132C38AE092E042D38130D6
S113090079F5A0DCBBD52EDC9DD5CEEDD1E08BE016
S1130910EFEBF1E0DE0101900D928A95E1F7AE0173
S113092060E080E086D580911D021F928F938091B4
S113093029021F928F938DE791E09F938F93DF930A
S1130940CF930E94970DAE0160E081E072D58DB720
S11309509EB708960FB6F8949EBF0FBE8DBFFEC219
S113096088EF91E00ED3813079F56CDC87D50FDC0C
S113097069D5CEEDD1E08BE0EFEBF1E0DE01019043
S11309800D928A95E1F7AE0160E080E052D5809146
S11309901D021F928F93809129021F928F938DE7DE
S11309A091E09F938F93DF93CF930E94970DAE01B5
S11309B060E081E03ED58DB79EB708960FB6F894F7
S11309C09EBF0FBE8DBFCAC290911E0280912902A4
S11309D0981328C09091200280911D02981322C080
S11309E031DCEADB2FD587E0E8EBF1E0AEEDB1E0F6
S11309F001900D928A95E1F74EED51E060E080E0C0
S1130A0018D581E1E3E1F1E0AEEDB1E001900D92A2
S1130A108A95E1F74EED51E060E081E00AD583E08C
S1130A208093FF0180911E0299E8899F212D112452
S1130A302295269527703CE3239F80191124282FA3
S1130A4080912002899F912D1124929596959770FB
S1130A50939F8019112494E6299F800D112480937B
S1130A60280290E035D47AC280E192E08AD28130C3
S1130A7059F5E8DBA1DBE6D4CEEDD1E087E0E8EB85
S1130A80F1E0DE0101900D928A95E1F7AE0160E09C
S1130A9080E0CFD4809102021F928F938EE291E086
S1130AA09F938F93DF93CF930E94970DAE0160E0E5
S1130AB081E0BFD483E08093FF010F900F900F90EB
S1130AC00F900F900F904AC284E092E05AD2813086
S1130AD011F5B8DBD3D4B6D488E0EBE0F1E0AEEDA9
S1130AE0B1E001900D928A95E1F74EED51E060E09E
S1130AF080E09FD481E1E3E1F1E0AEEDB1E001906B
S1130B000D928A95E1F74EED51E060E081E091D4D9
S1130B101092FF0123C282E292E033D28130B1F419
S1130B2080910202813049F018F0823059F016C2E7
S1130B3081E0809302024CDC11C282E080930202C5
S1130B4047DC0CC21092020243DC08C2DDDD809156
S1130B50280290E0BDD302C280E192E012D281303B
S1130B6011F570DB8BD46ED488E0EBE0F1E0AEEDF0
S1130B70B1E001900D928A95E1F74EED51E060E00D
S1130B8080E057D481E1E3E1F1E0AEEDB1E0019022
S1130B900D928A95E1F74EED51E060E081E049D491
S1130BA01092FF01DBC187E192E0EBD1813021F5A6
S1130BB049DB02DB47D48BE0EFEBF1E0AEEDB1E0D3
S1130BC001900D928A95E1F74EED51E060E080E0EE
S1130BD030D48CE0EAECF1E0AEEDB1E001900D929E
S1130BE08A95E1F74EED51E060E081E022D484E0A3
S1130BF08093FF0184DDB2C184E092E0C2D18130F0
S1130C0019F520DBD9DA1ED48AE0E4E2F1E0AEED96
S1130C10B1E001900D928A95E1F74EED51E060E06C
S1130C2080E007D487E0E6EDF1E0AEEDB1E00190BD
S1130C300D928A95E1F74EED51E060E081E0F9D341
S1130C4085E08093FF018AC15FDD8091280290E0F6
S1130C503FD3D2DA83C180E192E093D1813081F530
S1130C60F1DAAADAE5DBEED3CEEDD1E08BE0EFEBFF
S1130C70F1E0DE0101900D928A95E1F7AE0160E0AA
S1130C8080E0D7D380911D021F928F938091290217
S1130C901F928F938DE791E09F938F93DF93CF9370
S1130CA046D7AE0160E081E0C4D31092FF018DB756
S1130CB09EB708960FB6F8949EBF0FBE8DBF4EC167
S1130CC087E192E05ED1813021F5BCDA75DABAD3DE
S1130CD087E0E8EBF1E0AEEDB1E001900D928A958A
S1130CE0E1F74EED51E060E080E0A3D381E1E3E180
S1130CF0F1E0AEEDB1E001900D928A95E1F74EED91
S1130D0051E060E081E095D383E08093FF01F7DC5C
S1130D1025C18AE092E035D1813071F593DA4CDA5D
S1130D2021DA90D3CEEDD1E08BE0EFEBF1E0DE0100
S1130D3001900D928A95E1F7AE0160E080E079D3ED
S1130D4080911D021F928F93809129021F928F938D
S1130D508DE791E09F938F93DF93CF93E8D6AE0115
S1130D6060E081E066D38DB79EB708960FB6F8941D
S1130D709EBF0FBE8DBFF2C088EF91E002D18130DB
S1130D8071F560DA19DA03DA5DD3CEEDD1E08BE0E8
S1130D90EFEBF1E0DE0101900D928A95E1F7AE01EF
S1130DA060E080E046D380911D021F928F93809172
S1130DB029021F928F938DE791E09F938F93DF9386
S1130DC0CF93B5D6AE0160E081E033D38DB79EB743
S1130DD008960FB6F8949EBF0FBE8DBFBFC090910A
S1130DE01E0280912902981326C0909120028091BE
S1130DF01D02981320C042D325D388E0EBE0F1E034
S1130E00AEEDB1E001900D928A95E1F74EED51E01F
S1130E1060E080E00ED381E1E3E1F1E0AEEDB1E02A
S1130E2001900D928A95E1F74EED51E060E081E08A
S1130E3000D31092FF0180911E0299E8899F212D11
S1130E4011242295269527703CE3239F80191124B1
S1130E50282F80912002899F912D11249295969597
S1130E609770939F8019112494E6299F800D112473
S1130E708093280290E02CD2BFD970C080E192E028
S1130E8080D0813011F5DED9F9D2DCD288E0EBE0F4
S1130E90F1E0AEEDB1E001900D928A95E1F74EEDEF
S1130EA051E060E080E0C5D281E1E3E1F1E0AEED44
S1130EB0B1E001900D928A95E1F74EED51E060E0CA
S1130EC081E0B7D21092FF0149C084E092E059D08A
S1130ED0813019F5B7D970D9B5D287E0E8EBF1E0E4
S1130EE0AEEDB1E001900D928A95E1F74EED51E03F
S1130EF060E080E09ED281E1E3E1F1E0AEEDB1E0BB
S1130F0001900D928A95E1F74EED51E060E081E0A9
S1130F1090D283E08093FF0121C082E292E031D03D
S1130F208130B1F480910202813049F018F08230AE
S1130F3059F014C081E0809302021BDA0FC082E0F2
S1130F408093020216DA0AC01092020212DA06C074
S1130F501092280280E090E0BBD14ED9DF91CF916E
S1130F600895D5DB70CA0895FC01CB0171836083B9
S1130F7053834283248331E0358340E0622FB2C33C
S1130F800895CF93DF93EC016C818A819B81E1D337
S1130F9081110CC09D81913049F48FE39CE9019744
S1130FA0F1F700C000001D8280E011C0882361F0C9
S1130FB08D8181110BC08FE39CE90197F1F700C08B
S1130FC0000081E08D8303C082E001C082E0DF91F4
S1130FD0CF91089541E064E082E290E083D3EAE8AF
S1130FE0F0E0808183608083808188618083EBE886
S1130FF0F0E08081826080830895EBE8F0E08081F6
S1131000806280830895EBE8F0E080818F7C8083A8
S1131010089584369105D0F0813A2FE09207B0F418
S11310209C0140E050E060E970ED83E090E029D558
S113103021503109E0E8F0E03183208380819181FF
S1131040969587959093850080938400089541E058
S113105060E084E690E046D341E065E082E290E01F
S113106041D341E066E082E290E03CD341E067E0B6
S113107082E290E037D361E081E690E02AC30895EC
S11310800F931F93CF93DF93CDB7DEB72B970FB694
S1131090F894DEBF0FBECDBF8C018BE0E0E0F1E041
S11310A0DE01119601900D928A95E1F78091F2018B
S11310B090E0019665E070E0D1D48093F20141E0C4
S11310C060E085E690E02BD341E065E083E290E0C8
S11310D026D341E066E083E290E021D341E067E07B
S11310E083E290E01CD38091F201823009F47AC04B
S11310F030F4882359F0813009F441C0DEC08330D4
S113110009F4A1C0843009F4C6C0D7C0980136954B
S113111027953695279536952795A5ECB0E2CDD43D
S1131120AC01529542954F7045275F7045279A014F
S1131130ADECBCECC2D4969587959695879596951B
S113114087959C01220F331F880F991F880F991FC1
S1131150880F991F820F931F9A01281B390BE1E016
S1131160F0E0EC0FFD1FE20FF31F608182E690E0D8
S1131170D3D240E060E085E690E0D1D29EC09801F1
S11311803695279536952795ABE7B4E196D4AC010F
S1131190569547959A01ADECBCEC8FD496958795FE
S11311A096958795969587959C01220F331F880FF6
S11311B0991F880F991F880F991F820F931F9A01F7
S11311C0281B390BE1E0F0E0EC0FFD1FE20FF31FE9
S11311D0608182E690E0A0D240E065E083E290E0A6
S11311E09ED26BC09801ADECBCEC67D4AC015695B3
S11311F0479556954795569547959A015ED4969589
S1131200879596958795969587959C01220F331F10
S1131210880F991F880F991F880F991F820F931F9A
S11312209A01281B390BE1E0F0E0EC0FFD1FE20FFF
S1131230F31F608182E690E06FD240E066E083E2D3
S113124090E06DD23AC09801ADECBCEC36D49695E2
S1131250879596958795969587959C01220F331FC0
S1131260880F991F880F991F880F991F820F931F4A
S11312709801281B390BE1E0F0E0EC0FFD1FE20FB1
S1131280F31F608182E690E047D240E067E083E2AA
S113129090E045D212C08091F301882329F060E8E0
S11312A082E690E039D204C060E082E690E034D275
S11312B040E065E083E290E032D22B960FB6F894DA
S11312C0DEBF0FBECDBFDF91CF911F910F91089567
S11312D09093F5018093F40108958091F401909125
S11312E0F501CECE089541E065E087E390E0FAD1C0
S11312F041E066E087E390E0F5D141E067E087E311
S113130090E0F0D161E084E390E0E3C10895682FB8
S113131088E390E001C20895682F85E390E0FCC162
S1131320089580912A028F7D80932A02F0CF089538
S113133080912A02806280932A02E9CF08958091E5
S11313402A028F7B80932A02E2CF089580912A0299
S1131350806880932A02DBDF8FE99FE00197F1F731
S113136000C00000089580912A028F7780932A029A
S1131370CEDF8FE99FE00197F1F700C000000895E8
S1131380CBCF0895CF93C82FCCDFD9DFDFDF8C2FED
S1131390F7DFE9DFCF910895A6DF8FE59AEE019795
S11313A0F1F700C0000088E3EDDF8FE19EE40197D0
S11313B0F1F700C0000088E3E5DF8FE99FE00197C3
S11313C0F1F700C0000088E3DDDF88E3DBDF88E0BD
S11313D0D9DF81E0D7DF86E0D5DF8CE0D3CF089575
S11313E0CF93C82FA5DFABDFB1DF8C2FC9DFBBDF05
S11313F0CF9108950F931F93CF93DF938C01C0E097
S1131400D0E002C0EDDF2196F801EC0FFD1F8081D2
S11314108111F8CFDF91CF911F910F9108956F70D3
S1131420817090E4899F600D1124862F8058AACF83
S11314300895CF93DF93EA01F2DFCE01DBDFDF9182
S1131440CF91089581E09ECF089541E063E082E268
S113145090E048D1EAE8F0E0808183608083808175
S113146088618083EBE8F0E0808182608083089566
S1131470EBE8F0E08081806880830895EBE8F0E099
S113148080818F7380830895CF93C62F843691050E
S1131490D8F0813A2FE09207B8F49C0140E050E084
S11314A060E970ED83E090E0ECD221503109E0E88E
S11314B0F0E031832083808191816C2F70E0BAD277
S11314C07093870060938600CF91089510922B0249
S11314D081B38B7F81BB81B3886081BBEAE6F0E096
S11314E080818063808389B7846089BF089582B3D3
S11314F0886082BB85E38A95F1F7000082B3877F19
S113150082BB08956CB57DB580E090E0A2D126E958
S113151033E44BE85DE303D270D1CB0108951DBCE5
S11315201CBC8EB583608EBD08958EB5887F8EBD3C
S1131530089581E080932B02089510922B02089560
S113154080912B020895811109C0EAE6F0E08081C0
S11315508F7C80838081806280830895EAE6F0E056
S113156080818F7C80838081806380830895829BC7
S113157004C0D5DF80E0E7CF0895D7DFDADF81E06C
S1131580E2CF08951F920F920FB60F9211240BB65B
S11315900F922F933F934F935F936F937F938F9308
S11315A09F93AF93BF93EF93FF930E94B40182E89C
S11315B082BFFF91EF91BF91AF919F918F917F91E6
S11315C06F915F914F913F912F910F900BBE0F90B0
S11315D00FBE0F901F9018951F920F920FB60F9287
S11315E011240BB60F922F933F934F935F936F93F6
S11315F07F938F939F93AF93BF93EF93FF930E9437
S1131600B101FF91EF91BF91AF919F918F917F9124
S11316106F915F914F913F912F910F900BBE0F905F
S11316200FBE0F901F9018951F920F920FB60F9236
S113163011240BB60F922F933F934F935F936F93A5
S11316407F938F939F93AF93BF93EF93FF930E94E6
S11316506600FF91EF91BF91AF919F918F917F9120
S11316606F915F914F913F912F910F900BBE0F900F
S11316700FBE0F901F9018951F920F920FB60F92E6
S113168011240BB60F922F933F934F935F936F9355
S11316907F938F939F93AF93BF93EF93FF930E9496
S11316A0B601FF91EF91BF91AF919F918F917F917F
S11316B06F915F914F913F912F910F900BBE0F90BF
S11316C00FBE0F901F9018950E943501789449DC45
S11316D0FECF613021F42FEFFC0120830895FC013B
S11316E010820895FC01413059F4208181E090E09A
S11316F002C0880F991F6A95E2F7822B80830895B0
S1131700908121E030E002C0220F331F6A95E2F796
S11317102095292320830895FC0160830895FC010A
S1131720413059F4208181E090E002C0880F991F74
S11317306A95E2F7822B80830895908121E030E05E
S113174002C0220F331F6A95E2F7209529232083D4
S11317500895FC01808190E002C0959587956A9573
S1131760E2F78170089583B7856083BF87B781608E
S113177087BF82E882BF089585B5836085BD85B53E
S1131780886085BD87B7806887BF89EF83BD08956A
S11317908AB188618AB98BB182608BB98AB1806859
S11317A08AB98FEC89B908959CB19A3091F4E0918B
S11317B0F601AE2FB0E0A45DBD4F9C93EF5FF0E067
S11317C0E45DFD4F10821092F60181E08093F701F1
S11317D008958091F601E82FF0E0E45DFD4F9083D9
S11317E08F5F8093F60108958091F7010895109218
S11317F0F70108958CE292E0089570D088F09F5725
S113180090F0B92F9927B751A0F0D1F0660F771F48
S1131810881F991F1AF0BA95C9F712C0B13081F028
S113182077D0B1E0089574C0672F782F8827B85F08
S113183039F0B93FCCF3869577956795B395D9F789
S11318403EF490958095709561957F4F8F4F9F4F93
S11318500895E89409C097FB3EF49095809570959F
S113186061957F4F8F4F9F4F9923A9F0F92F96E9E8
S1131870BB279395F695879577956795B795F1115D
S1131880F8CFFAF4BB0F11F460FF1BC06F5F7F4FFA
S11318908F4F9F4F16C0882311F096E911C077230C
S11318A021F09EE8872F762F05C0662371F096E815
S11318B0862F70E060E02AF09A95660F771F881FE4
S11318C0DAF7880F9695879597F9089557FD9058FC
S11318D0440F551F59F05F3F71F04795880F97FBF0
S11318E0991F61F09F3F79F08795089512161306AA
S11318F01406551FF2CF4695F1DF08C016161706D9
S11319001806991FF1CF869571056105089408950D
S1131910E894BB2766277727CB0197F908950BD066
S113192078C069D028F06ED018F0952309F05AC019
S11319305FC01124EECFCADFA0F3959FD1F3950FBA
S113194050E0551F629FF001729FBB27F00DB11D3F
S1131950639FAA27F00DB11DAA1F649F6627B00DCF
S1131960A11D661F829F2227B00DA11D621F739FB8
S1131970B00DA11D621F839FA00D611D221F749FC6
S11319803327A00D611D231F849F600D211D822F0D
S1131990762F6A2F11249F5750408AF0E1F0882354
S11319A04AF0EE0FFF1FBB1F661F771F881F915061
S11319B05040A9F79E3F510570F014C0AACF5F3F75
S11319C0ECF3983EDCF3869577956795B795F79594
S11319D0E7959F5FC1F7FE2B880F911D969587951C
S11319E097F9089597F99F6780E870E060E008959B
S11319F09FEF80EC089500240A9416161706180623
S1131A000906089500240A941216130614060506FE
S1131A100895092E0394000C11F4882352F0BB0F8F
S1131A2040F4BF2B11F460FF04C06F5F7F4F8F4FF2
S1131A309F4F0895AA1BBB1B51E107C0AA1FBB1FE0
S1131A40A617B70710F0A61BB70B881F991F5A9546
S1131A50A9F780959095BC01CD01089597FB072EB9
S1131A6016F4009406D077FD08D0E4DF07FC05D017
S1131A703EF4909581959F4F0895709561957F4FA1
S1131A800895052E97FB16F400940FD057FD05D04A
S1131A9023D007FC02D046F408C0509540953095F9
S1131AA021953F4F4F4F5F4F0895909580957095C6
S1131AB061957F4F8F4F9F4F0895A29FB001B39FB1
S1131AC0C001A39F700D811D1124911DB29F700D43
S1131AD0811D1124911D0895A1E21A2EAA1BBB1B7E
S1131AE0FD010DC0AA1FBB1FEE1FFF1FA217B307E6
S1131AF0E407F50720F0A21BB30BE40BF50B661FFC
S1131B00771F881F991F1A9469F7609570958095BF
S1131B1090959B01AC01BD01CF010895FB01DC014F
S1131B208D91019080190110D9F3990B08950F93A9
S1131B301F93CF93DF93CDB7DEB72E970FB6F894EC
S1131B40DEBF0FBECDBF0D891E8986E08C831A834C
S1131B5009838FEF9FE79E838D83AE01475E5F4FBE
S1131B606F89788DCE01019610D0EF81F885E00F52
S1131B70F11F10822E960FB6F894DEBF0FBECDBFB4
S1131B80DF91CF911F910F9108952F923F924F9221
S1131B905F926F927F928F929F92AF92BF92CF92F9
S1131BA0DF92EF92FF920F931F93CF93DF93CDB702
S1131BB0DEB72B970FB6F894DEBF0FBECDBF6C0116
S1131BC07B018A01FC0117821682838181FFBFC1D8
S1131BD0CE0101963C01F6019381F70193FD8591B5
S1131BE093FF81917F01882309F4ADC1853239F4D3
S1131BF093FD859193FF81917F01853221F4B60194
S1131C0090E0D6D1E8CF912C212C312CFFE1F315B3
S1131C10D8F08B3279F038F4803279F08332A1F441
S1131C20232D20611DC08D3261F0803369F4232D92
S1131C30216016C0832D8260382EE32DE4603E2E91
S1131C402AC0F32DF8601DC037FC2DC020ED280FED
S1131C502A3040F08E32B9F436FC75C1232D20644D
S1131C60322E19C036FE06C08AE0989E200D11243B
S1131C70922E11C0EAE02E9E200D1124222EF32D67
S1131C80F0623F2E08C08C3621F4832D8068382EF4
S1131C9002C0883641F4F70193FD859193FF819149
S1131CA07F018111B3CF982F9F7D9554933028F4F1
S1131CB00C5F1F4F9FE399830DC0833631F0833748
S1131CC071F0833509F055C020C0F8018081898303
S1131CD00E5F1F4F88248394912C530112C0280156
S1131CE0F2E04F0E511CF801A080B18036FE03C013
S1131CF0692D70E002C06FEF7FEFC5014ED14C013A
S1131D008201F32DFF773F2E15C0280122E0420EF9
S1131D10511CF801A080B18036FE03C0692D70E02B
S1131D2002C06FEF7FEFC5012DD14C01F32DF06898
S1131D303F2E820133FC19C0822D90E0881699064B
S1131D40A0F4B60180E290E033D12A94F5CFF501F6
S1131D5037FC859137FE81915F01B60190E028D16F
S1131D6021102A9421E0821A91088114910479F7B0
S1131D70E1C0843611F0893639F5F80137FE07C021
S1131D8060817181828193810C5F1F4F08C06081E3
S1131D907181072E000C880B990B0E5F1F4FF32DDA
S1131DA0FF763F2E97FF09C09095809570956195B9
S1131DB07F4F8F4F9F4FF0683F2E2AE030E0A30102
S1131DC033D1882E861844C0853731F4232D2F7ED5
S1131DD0B22E2AE030E025C0932D997FB92E8F369C
S1131DE0C1F018F4883579F0AEC0803719F088371F
S1131DF021F0A9C0E92FE061BE2EB4FE0DC0FB2D79
S1131E00F460BF2E09C034FE0AC0292F2660B22E0A
S1131E1006C028E030E005C020E130E002C020E147
S1131E2032E0F801B7FE07C060817181828193813D
S1131E300C5F1F4F06C06081718180E090E00E5FEF
S1131E401F4FA301F1D0882E8618FB2DFF773F2E5C
S1131E5036FE0DC0232D2E7FA22E891458F434FE95
S1131E600BC032FC09C0832D8E7EA82E05C0B82C71
S1131E70A32C03C0B82C01C0B92CA4FE0FC0FE01D2
S1131E80E80DF11D8081803321F49A2D997EA92ECD
S1131E9009C0A2FE06C0B394B39404C08A2D867808
S1131EA009F0B394A3FC10C0A0FE06C0B21480F4E1
S1131EB0280C922C9B180DC0B21458F4B60180E281
S1131EC090E076D0B394F8CFB21418F42B1802C073
S1131ED0982C212CA4FE0FC0B60180E390E068D0BA
S1131EE0A2FE16C0A1FC03C088E790E002C088E50A
S1131EF090E0B6010CC08A2D867851F0A1FE02C094
S1131F008BE201C080E2A7FC8DE2B60190E050D0E4
S1131F10891430F4B60180E390E04AD09A94F8CF63
S1131F208A94F301E80DF11D8081B60190E040D060
S1131F308110F6CF222009F44ECEB60180E290E063
S1131F4037D02A94F7CFF6018681978102C08FEFAC
S1131F509FEF2B960FB6F894DEBF0FBECDBFDF9177
S1131F60CF911F910F91FF90EF90DF90CF90BF9092
S1131F70AF909F908F907F906F905F904F903F9025
S1131F802F900895FC010590615070400110D8F71E
S1131F90809590958E0F9F1F0895FC0161507040AD
S1131FA001900110D8F7809590958E0F9F1F08958A
S1131FB00F931F93CF93DF93FB01238121FD03C074
S1131FC08FEF9FEF2CC022FF16C0468157812481DA
S1131FD035814217530744F4A081B1819D012F5FDD
S1131FE03F4F318320838C93268137812F5F3F4F6E
S1131FF03783268314C08B01EC01FB010084F18537
S1132000E02D0995892BE1F6D80116968D919C91C6
S11320101797019617969C938E931697CE01DF918E
S1132020CF911F910F910895FA01AA27283051F1F9
S1132030203181F1E8946F936E7F6E5F7F4F8F4FF5
S11320409F4FAF4FB1E03ED0B4E03CD0670F781F54
S1132050891F9A1FA11D680F791F8A1F911DA11D39
S11320606A0F711D811D911DA11D20D009F4689472
S11320703F912AE0269F11243019305D3193DEF61A
S1132080CF010895462F4770405D4193B3E00FD0D0
S1132090C9F7F6CF462F4F70405D4A3318F0495DBB
S11320A031FD4052419302D0A9F7EACFB4E0A6959E
S11320B09795879577956795BA95C9F700976105C0
S11320C0710508959B01AC010A2E06945795479516
S11320D037952795BA95C9F7620F731F841F951F0B
S10B20E0A01D0895F894FFCF40
S11320E83F065B4F666D7D077F678046616E204FB4
S11320F8666600323A54494D45527C333A4E4F5243
S11321084D414C0046616E2053706565640025643A
S1132118004F4E0A004F46460A0046414E5F55504E
S11321280A004F4E5F4D494E2B0A004F4E2054690A
S11321386D65723A20253032643A25303264004F96
S11321484E5F5345432B0A004F46465F4D494E2B7D
S11321580A004F46462054696D65723A202530328C
S1132168643A25303264004F46465F5345432B0A90
S113217800436C6F636B5F5365740A00436F756E3D
S113218874646F776E205374617274656400546963
S11321986D696E672E2E2E0046616E204F6E0054B8
S11321A8696D6572204D6F646500333A4D494E7C04
S11121B8343A53454300343A4E45585400001F
S9030000FC
